:020000040800F2
:10000000005000204907000881030008870300080A
:100010008D03000893030008990300080000000006
:100020000000000000000000000000009F03000826
:10003000AB03000800000000B7030008C30300087A
:100040009107000891070008910700089107000830
:100050009107000891070008910700089107000820
:100060009107000891070008910700089107000810
:100070009107000891070008910700089107000800
:1000800091070008910700089107000891070008F0
:1000900091070008910700089107000891070008E0
:1000A00091070008910700089107000891070008D0
:1000B00091070008D1030008E50300089107000834
:1000C00091070008910700089107000891070008B0
:1000D00091070008910700089107000891070008A0
:1000E0009107000891070008910700080000000030
:1000F0000000000000000000000000000000000000
:0C01000000000000000000005FF808F1A3
:10010C0010B5054C237833B9044B13B10448AFF345
:10011C0000800123237010BD14000020000000009B
:10012C00F823000808B5034B1BB103490348AFF390
:10013C00008008BD0000000018000020F823000813
:10014C0080B483B000AF084B9B69074A43F00403AB
:10015C009361054B9B6903F004037B607B6800BFD4
:10016C000C37BD4680BC70470010024080B500AF14
:10017C0000F00AFB00F024F8FFF7E2FF00F03CF976
:10018C0000F0CCF900F018FA00F05AF804210948F4
:10019C0001F0A8FA0821074801F0A4FA0C2105483F
:1001AC0001F0A0FA044801F0F3F9044801F0F0F969
:1001BC00FEE700BFC40000207C00002034000020BB
:1001CC0080B590B000AF07F1180328220021184623
:1001DC0002F004F93B1D00221A605A609A60DA6042
:1001EC001A610223BB610123BB621023FB62022351
:1001FC007B630023BB634FF40023FB6307F11803FD
:10020C00184600F08BFD0346002B01D000F07CF863
:10021C000F237B600223BB600023FB6000233B6148
:10022C0000237B613B1D0021184600F0F7FF0346BD
:10023C00002B01D000F068F800BF4037BD4680BDF0
:10024C0080B500AF002200211D2000F0D6FB1D2040
:10025C0000F0EFFB002200211E2000F0CEFB1E2040
:10026C0000F0E7FB00BF80BD80B483B000AF7860C6
:10027C007B681B681E4A93421AD11E4B1B68B3F550
:10028C00167F0DDA1C4B1B68002B09D1194B1B6810
:10029C000133184A1360174B1A68184B1B68DA6342
:1002AC00144B1B68B3F5167F02DB124BFF221A604E
:1002BC007B681B68124A934215D1124B1B68FF2BAB
:1002CC0009DD104B1B680A3B0E4A13600D4B1A6874
:1002DC000A4B1B689A630B4B1B68FF2B03DC094B07
:1002EC004FF416721A6000BF0C37BD4680BC7047C5
:1002FC00000400400000002030000020C40000205A
:10030C00000800400400002080B400AF72B6FEE785
:10031C0080B485B000AF154B9B69144A43F00103C0
:10032C009361124B9B6903F00103BB60BB680F4BDD
:10033C00DB690E4A43F08053D3610C4BDB6903F04D
:10034C0080537B607B680A4B5B68FB60FB6823F027
:10035C00E063FB60FB6843F00073FB60044AFB68DE
:10036C00536000BF1437BD4680BC7047001002407C
:10037C000000014080B400AFFEE780B400AFFEE7A0
:10038C0080B400AFFEE780B400AFFEE780B400AFEE
:10039C00FEE780B400AF00BFBD4680BC704780B4A0
:1003AC0000AF00BFBD4680BC704780B400AF00BF3B
:1003BC00BD4680BC704780B500AF00F02BFA00BF83
:1003CC0080BD000080B500AF024801F02DFA00BFDF
:1003DC0080BD00BF7C00002080B500AF024801F05A
:1003EC0023FA00BF80BD00BF3400002080B400AFF2
:1003FC0000BFBD4680BC704780B58EB000AF07F122
:10040C00280300221A605A609A60DA6007F1200310
:10041C0000221A605A603B1D00221A605A609A60D2
:10042C00DA601A615A619A613B4B4FF080421A6054
:10043C00394B40225A60384B00229A60364B41F2BD
:10044C00EC32DA60344B00221A61334B00229A6191
:10045C00314801F04DF80346002B01D0FFF754FF53
:10046C004FF48053BB6207F1280319462A4801F068
:10047C00A1FB0346002B01D0FFF746FF264801F0F5
:10048C00D9F80346002B01D0FFF73EFF00233B6257
:10049C0000237B6207F1200319461F4801F00AFF75
:1004AC000346002B01D0FFF72FFF60237B604FF436
:1004BC001673BB600023FB6000237B613B1D042291
:1004CC001946154801F0B8FA0346002B01D0FFF786
:1004DC001BFFFF23BB603B1D082219460E4801F091
:1004EC00ABFA0346002B01D0FFF70EFF4FF4487315
:1004FC00BB603B1D0C221946074801F09DFA0346D0
:10050C00002B01D0FFF700FF034800F0E7F800BF15
:10051C003837BD4680BD00BFC400002080B586B012
:10052C0000AF07F1080300221A605A609A60DA6083
:10053C003B4600221A605A601D4B1E4A1A601C4B27
:10054C004FF47A525A601A4B00229A60184B0A22C6
:10055C00DA60174B00221A61154B00229A6114487D
:10056C0000F0C6FF0346002B01D0FFF7CDFE4FF481
:10057C008053BB6007F1080319460D4801F01AFBC4
:10058C000346002B01D0FFF7BFFE20233B60002366
:10059C007B603B461946064801F08CFE0346002B57
:1005AC0001D0FFF7B1FE00BF1837BD4680BD00BFBC
:1005BC007C0000200004004080B586B000AF07F13D
:1005CC00080300221A605A609A60DA603B460022E7
:1005DC001A605A601D4B1E4A1A601C4B4FF47A521B
:1005EC005A601A4B00229A60184B0A22DA60174B99
:1005FC0000221A61154B00229A61144800F078FF12
:10060C000346002B01D0FFF77FFE4FF48053BB60F5
:10061C0007F1080319460D4801F0CCFA0346002BEC
:10062C0001D0FFF771FE20233B6000237B603B462B
:10063C001946064801F03EFE0346002B01D0FFF799
:10064C0063FE00BF1837BD4680BD00BF34000020DC
:10065C000008004080B487B000AF78607B681B68EE
:10066C00B3F1804F0CD11A4BDB69194A43F00103EB
:10067C00D361174BDB6903F001037B617B6922E0DB
:10068C007B681B68134A93420CD1114BDB69104AEF
:10069C0043F00203D3610E4BDB6903F002033B61B1
:1006AC003B6910E07B681B680B4A93420BD1084BEB
:1006BC00DB69074A43F00403D361054BDB6903F0A4
:1006CC000403FB60FB6800BF1C37BD4680BC704751
:1006DC0000100240000400400008004080B588B0C3
:1006EC0000AF786007F1100300221A605A609A601C
:1006FC00DA607B681B68B3F1804F17D10D4B9B6997
:10070C000C4A43F0040393610A4B9B6903F0040306
:10071C00FB60FB680E233B6102237B610223FB61C0
:10072C0007F110031946044800F09EF900BF20376A
:10073C00BD4680BD0010024000080140002103E0CE
:10074C000B4B5B58435004310A480B4B42189A42EE
:10075C00F6D30A4A02E0002342F8043B084B9A42C3
:10076C00F9D3FFF743FE01F015FEFFF7FFFC7047CE
:10077C003C2400080000002014000020140000207D
:10078C0010010020FEE7000080B500AF084B1B688D
:10079C00074A43F010031360032000F023F90020F4
:1007AC0000F008F8FFF7B4FD0023184680BD00BF29
:1007BC000020024080B582B000AF7860124B1A68FE
:1007CC00124B1B7819464FF47A73B3FBF1F3B2FB5F
:1007DC00F3F3184600F03BF90346002B01D001233C
:1007EC000EE07B680F2B0AD8002279684FF0FF309F
:1007FC0000F003F9064A7B681360002300E0012334
:10080C0018460837BD4680BD0800002010000020A7
:10081C000C00002080B400AF054B1B781A46054B2A
:10082C001B681344034A136000BFBD4680BC70476D
:10083C00100000200C01002080B400AF024B1B689C
:10084C001846BD4680BC70470C01002080B485B0B2
:10085C0000AF78607B6803F00703FB600C4BDB6830
:10086C00BB60BA684FF6FF031340BB60FB681A020B
:10087C00BB68134343F0BF6343F40033BB60044ACB
:10088C00BB68D36000BF1437BD4680BC704700BF47
:10089C0000ED00E080B400AF044BDB681B0A03F0F2
:1008AC0007031846BD4680BC704700BF00ED00E052
:1008BC0080B483B000AF0346FB7197F90730002B6F
:1008CC000BDBFB7903F01F02064997F907305B0934
:1008DC00012000FA02F241F8232000BF0C37BD467C
:1008EC0080BC704700E100E080B483B000AF0346E9
:1008FC003960FB7197F90730002B0ADB3B68DAB2E1
:10090C000C4997F907301201D2B20B4483F800233B
:10091C000AE03B68DAB20849FB7903F00F03043BA9
:10092C001201D2B20B441A7600BF0C37BD4680BC04
:10093C00704700BF00E100E000ED00E080B489B03A
:10094C0000AFF860B9607A60FB6803F00703FB61E5
:10095C00FB69C3F10703042B28BF0423BB61FB69AC
:10096C000433062B02D9FB69033B00E000237B61B7
:10097C004FF0FF32BB6902FA03F3DA43BB681A404B
:10098C007B699A404FF0FF317B6901FA03F3D9433D
:10099C007B680B40134318462437BD4680BC704718
:1009AC0080B582B000AF78607B68013BB3F1807F8B
:1009BC0001D301230FE00A4A7B68013B53600F21EE
:1009CC004FF0FF30FFF790FF054B00229A60044B6D
:1009DC0007221A60002318460837BD4680BD00BFA9
:1009EC0010E000E080B582B000AF78607868FFF767
:1009FC002DFF00BF0837BD4680BD80B586B000AF67
:100A0C000346B9607A60FB7300237B61FFF742FFFA
:100A1C0078617A68B9687869FFF790FF024697F9B0
:100A2C000F3011461846FFF75FFF00BF1837BD4661
:100A3C0080BD80B582B000AF0346FB7197F90730DB
:100A4C001846FFF735FF00BF0837BD4680BD80B59F
:100A5C0082B000AF78607868FFF7A2FF03461846B3
:100A6C000837BD4680BD000080B48BB000AF786005
:100A7C00396000237B6200233B6227E101227B6A01
:100A8C0002FA03F3FB613B681B68FA691340BB6114
:100A9C00BA69FB699A4240F016813B685B68122B7D
:100AAC0034D0122B0DD8022B2BD0022B04D8002BB8
:100ABC0031D0012B1CD048E0032B43D0112B1BD081
:100ACC0043E0894A934226D0874A934206D8874A04
:100ADC00934220D0864A93421DD036E0854A9342F9
:100AEC0019D0854A934216D0844A934213D02CE0F5
:100AFC003B68DB683B6228E03B68DB6804333B62A5
:100B0C0023E03B68DB6808333B621EE03B68DB6834
:100B1C000C333B6219E03B689B68002B02D1042329
:100B2C003B6212E03B689B68012B05D108233B62BA
:100B3C007B68FA691A6108E008233B627B68FA69F2
:100B4C005A6102E000233B6200BFBB69FF2B01D856
:100B5C007B6801E07B6804337B61BB69FF2B02D8A7
:100B6C007B6A9B0002E07B6A083B9B003B617B69D4
:100B7C001A680F213B6901FA03F3DB431A40396A07
:100B8C003B6901FA03F31A437B691A603B685B68A3
:100B9C0003F08053002B00F09680594B9B69584A08
:100BAC0043F001039361564B9B6903F00103BB6057
:100BBC00BB68544A7B6A9B08023352F82330FB60B3
:100BCC007B6A03F003039B000F2202FA03F3DB435F
:100BDC00FA681340FB607B684B4A934213D07B68E6
:100BEC004A4A93420DD07B68494A934207D07B68AE
:100BFC00484A934201D1032306E0042304E0022374
:100C0C0002E0012300E000237A6A02F00302920062
:100C1C009340FA681343FB603A497B6A9B080233A2
:100C2C00FA6841F823203B685B6803F48033002B9F
:100C3C0006D0394B1A683849BB6913430B6006E080
:100C4C00354B1A68BB69DB43334913400B603B6877
:100C5C005B6803F40033002B06D02F4B5A682E49E7
:100C6C00BB6913434B6006E02B4B5A68BB69DB43F3
:100C7C00294913404B603B685B6803F48013002BDD
:100C8C0006D0254B9A682449BB6913438B6006E058
:100C9C00214B9A68BB69DB431F4913408B603B684F
:100CAC005B6803F40013002B06D01B4BDA681A495F
:100CBC00BB691343CB6006E0174BDA68BB69DB43B7
:100CCC0015491340CB607B6A01337B623B681A6821
:100CDC007B6A22FA03F3002B7FF4D0AE00BF2C37D3
:100CEC00BD4680BC704700BF0000211000001110F1
:100CFC000000121000003110000032100000221011
:100D0C00001002400000014000080140000C0140AE
:100D1C0000100140001401400004014080B586B071
:100D2C0000AF78607B68002B01D101236CE27B68FB
:100D3C001B6803F00103002B00F08780924B5B686B
:100D4C0003F00C03042B0CD08F4B5B6803F00C03EB
:100D5C00082B12D18C4B5B6803F48033B3F5803FC6
:100D6C000BD1894B1B6803F40033002B6CD07B68D0
:100D7C005B68002B68D1012346E27B685B68B3F5A6
:100D8C00803F06D1804B1B687F4A43F4803313604D
:100D9C002EE07B685B68002B0CD17B4B1B687A4A7E
:100DAC0023F480331360784B1B68774A23F4802339
:100DBC0013601DE07B685B68B3F5A02F0CD1724B00
:100DCC001B68714A43F4802313606F4B1B686E4A97
:100DDC0043F4803313600BE06B4B1B686A4A23F4BB
:100DEC0080331360684B1B68674A23F480231360BD
:100DFC007B685B68002B13D0FFF71EFD386108E0A1
:100E0C00FFF71AFD02463B69D31A642B01D9032361
:100E1C00FAE15D4B1B6803F40033002BF0D014E0B7
:100E2C00FFF70AFD386108E0FFF706FD02463B6953
:100E3C00D31A642B01D90323E6E1534B1B6803F44B
:100E4C000033002BF0D100E000BF7B681B6803F07F
:100E5C000203002B63D04C4B5B6803F00C03002B9C
:100E6C000BD0494B5B6803F00C03082B1CD1464B91
:100E7C005B6803F48033002B16D1434B1B6803F0E3
:100E8C000203002B05D07B681B69012B01D00123C9
:100E9C00BAE13D4B1B6823F0F8027B685B69DB0011
:100EAC00394913430B603AE07B681B69002B20D057
:100EBC00364B01221A60FFF7BFFC386108E0FFF7E0
:100ECC00BBFC02463B69D31A022B01D903239BE1DD
:100EDC002D4B1B6803F00203002BF0D02A4B1B6830
:100EEC0023F0F8027B685B69DB00274913430B6036
:100EFC0015E0264B00221A60FFF79EFC386108E0D3
:100F0C00FFF79AFC02463B69D31A022B01D9032343
:100F1C007AE11D4B1B6803F00203002BF0D17B68B8
:100F2C001B6803F00803002B3AD07B689B69002BED
:100F3C0019D0174B01221A60FFF77EFC386108E0CC
:100F4C00FFF77AFC02463B69D31A022B01D9032323
:100F5C005AE10D4B5B6A03F00203002BF0D0012029
:100F6C0000F0A8FA1CE00A4B00221A60FFF764FCA0
:100F7C0038610FE0FFF760FC02463B69D31A022B85
:100F8C0008D9032340E100BF001002400000424298
:100F9C00800442429E4B5B6A03F00203002BE9D1B2
:100FAC007B681B6803F00403002B00F0A680002371
:100FBC00FB75974BDB6903F08053002B0DD1944BE1
:100FCC00DB69934A43F08053D361914BDB6903F0A7
:100FDC008053BB60BB680123FB758E4B1B6803F40D
:100FEC008073002B18D18B4B1B688A4A43F4807397
:100FFC001360FFF721FC386108E0FFF71DFC024687
:10100C003B69D31A642B01D90323FDE0814B1B6888
:10101C0003F48073002BF0D07B68DB68012B06D1C6
:10102C007B4B1B6A7A4A43F0010313622DE07B6809
:10103C00DB68002B0CD1764B1B6A754A23F001033D
:10104C001362734B1B6A724A23F0040313621CE095
:10105C007B68DB68052B0CD16D4B1B6A6C4A43F02B
:10106C00040313626A4B1B6A694A43F0010313625F
:10107C000BE0674B1B6A664A23F001031362644B57
:10108C001B6A634A23F0040313627B68DB68002B42
:10109C0015D0FFF7D1FB38610AE0FFF7CDFB024614
:1010AC003B69D31A41F28832934201D90323ABE056
:1010BC00574B1B6A03F00203002BEED014E0FFF732
:1010CC00BBFB38610AE0FFF7B7FB02463B69D31A5A
:1010DC0041F28832934201D9032395E04C4B1B6AB1
:1010EC0003F00203002BEED1FB7D012B05D1484B05
:1010FC00DB69474A23F08053D3617B68DB69002BA3
:10110C0000F08180424B5B6803F00C03082B61D02C
:10111C007B68DB69022B46D13F4B00221A60FFF73C
:10112C008BFB386108E0FFF787FB02463B69D31A5B
:10113C00022B01D9032367E0354B1B6803F00073C6
:10114C00002BF0D17B681B6AB3F5803F08D1304B84
:10115C005B6823F400327B689B682D4913434B601A
:10116C002B4B5B6823F474127B68196A7B685B6A8F
:10117C000B43274913434B60274B01221A60FFF79F
:10118C005BFB386108E0FFF757FB02463B69D31A5B
:10119C00022B01D9032337E01D4B1B6803F00073AE
:1011AC00002BF0D02FE01C4B00221A60FFF744FB01
:1011BC00386108E0FFF740FB02463B69D31A022B6B
:1011CC0001D9032320E0124B1B6803F00073002BA2
:1011DC00F0D118E07B68DB69012B01D1012313E00E
:1011EC000B4B5B68FB60FB6803F480327B681B6A0B
:1011FC009A4206D1FB6803F470127B685B6A9A42D0
:10120C0001D0012300E0002318461837BD4680BDED
:10121C0000100240007000406000424280B584B073
:10122C0000AF786039607B68002B01D10123D0E0DE
:10123C006A4B1B6803F007033A689A4210D9674B54
:10124C001B6823F0070265493B6813430B60634B33
:10125C001B6803F007033A689A4201D00123B8E0F7
:10126C007B681B6803F00203002B20D07B681B6893
:10127C0003F00403002B05D0594B5B68584A43F428
:10128C00E06353607B681B6803F00803002B05D0F8
:10129C00534B5B68524A43F460535360504B5B684A
:1012AC0023F0F0027B689B684D4913434B607B68CD
:1012BC001B6803F00103002B40D07B685B68012B9B
:1012CC0007D1474B1B6803F40033002B15D10123C6
:1012DC007FE07B685B68022B07D1414B1B6803F0F6
:1012EC000073002B09D1012373E03D4B1B6803F005
:1012FC000203002B01D101236BE0394B5B6823F017
:10130C0003027B685B68364913434B60FFF794FA22
:10131C00F8600AE0FFF790FA0246FB68D31A41F234
:10132C008832934201D9032353E02D4B5B6803F0C1
:10133C000C027B685B689B009A42EBD1274B1B68C5
:10134C0003F007033A689A4210D2244B1B6823F02F
:10135C00070222493B6813430B60204B1B6803F0C8
:10136C0007033A689A4201D0012332E07B681B687C
:10137C0003F00403002B08D0194B5B6823F4E062E4
:10138C007B68DB68164913434B607B681B6803F072
:10139C000803002B09D0124B5B6823F460527B6866
:1013AC001B69DB000E4913434B6000F021F801462A
:1013BC000B4B5B681B0903F00F030A4AD35C21FA41
:1013CC0003F3094A1360094B1B681846FFF7F2F93F
:1013DC00002318461037BD4680BD00BF00200240D8
:1013EC000010024024240008080000200C000020FB
:1013FC0090B48AB000AF2A4B3C1D0FCB84E80F0091
:10140C00284B1B883B800023FB610023BB6100231E
:10141C007B6200237B6100233B62234B5B68FB6197
:10142C00FB6903F00C03042B02D0082B03D02DE036
:10143C001E4B3B622DE0FB699B0C03F00F0307F185
:10144C002802134413F8243C7B61FB6903F48033BA
:10145C00002B13D0144B5B685B0C03F0010307F1FA
:10146C002802134413F8283CBB617B690F4A02FB2A
:10147C0003F2BB69B2FBF3F37B6204E07B690C4AB9
:10148C0002FB03F37B627B6A3B6202E0074B3B622D
:10149C0000BF3B6A18462837BD4690BC704700BF5A
:1014AC0010240008202400080010024000127A00CA
:1014BC0000093D0080B485B000AF78600A4B1B6812
:1014CC000A4AA2FB03235B0A7A6802FB03F3FB6064
:1014DC0000BFFB685A1EFA60002BF9D100BF14370D
:1014EC00BD4680BC704700BF08000020D34D621081
:1014FC0080B582B000AF78607B68002B01D10123EE
:10150C0041E07B6893F83D30DBB2002B06D17B6861
:10151C00002283F83C207868FFF79CF87B68022255
:10152C0083F83D207B681A687B68043319461046A3
:10153C0000F01CFC7B68012283F846207B680122AA
:10154C0083F83E207B68012283F83F207B680122D0
:10155C0083F840207B68012283F841207B680122BC
:10156C0083F842207B68012283F843207B680122A8
:10157C0083F844207B68012283F845207B68012294
:10158C0083F83D20002318460837BD4680BD000077
:10159C0080B485B000AF78607B6893F83D30DBB2E7
:1015AC00012B01D001233AE07B68022283F83D2015
:1015BC007B681B68DA687B681B6842F00102DA60A2
:1015CC007B681B68184A93420ED07B681B68B3F18A
:1015DC00804F09D07B681B68144A934204D07B6807
:1015EC001B68134A934211D17B681B689B6803F0FC
:1015FC000703FB60FB68062B10D07B681B681A681E
:10160C007B681B6842F001021A6007E07B681B686C
:10161C001A687B681B6842F001021A6000231846A6
:10162C001437BD4680BC7047002C014000040040BC
:10163C000008004080B582B000AF78607B68002B5A
:10164C0001D1012341E07B6893F83D30DBB2002BE4
:10165C0006D17B68002283F83C20786800F039F8CA
:10166C007B68022283F83D207B681A687B68043310
:10167C001946104600F07AFB7B68012283F846205D
:10168C007B68012283F83E207B68012283F83F208F
:10169C007B68012283F840207B68012283F841207B
:1016AC007B68012283F842207B68012283F8432067
:1016BC007B68012283F844207B68012283F8452053
:1016CC007B68012283F83D20002318460837BD466D
:1016DC0080BD80B483B000AF786000BF0C37BD46CE
:1016EC0080BC704780B584B000AF786039603B68CF
:1016FC00002B09D17B6893F83E30DBB2012B14BF71
:10170C0001230023DBB222E03B68042B09D17B6868
:10171C0093F83F30DBB2012B14BF01230023DBB263
:10172C0015E03B68082B09D17B6893F84030DBB29D
:10173C00012B14BF01230023DBB208E07B6893F874
:10174C004130DBB2012B14BF01230023DBB2002B91
:10175C0001D001235EE03B68002B04D17B680222A0
:10176C0083F83E2013E03B68042B04D17B680222F3
:10177C0083F83F200BE03B68082B04D17B680222E6
:10178C0083F8402003E07B68022283F841207B68C9
:10179C001B6801223968184600F068FD7B681B68DD
:1017AC001E4A934207D17B681B685A6C7B681B6886
:1017BC0042F400425A647B681B68184A93420ED06C
:1017CC007B681B68B3F1804F09D07B681B68144A97
:1017DC00934204D07B681B68124A934211D17B68F8
:1017EC001B689B6803F00703FB60FB68062B10D09B
:1017FC007B681B681A687B681B6842F001021A60E0
:10180C0007E07B681B681A687B681B6842F0010262
:10181C001A60002318461037BD4680BD002C0140CD
:10182C00000400400008004080B582B000AF786032
:10183C007B681B681B6903F00203022B22D17B68B7
:10184C001B68DB6803F00203022B1BD17B681B684F
:10185C006FF002021A617B6801221A777B681B68A1
:10186C009B6903F00303002B03D0786800F062FA45
:10187C0005E0786800F055FA786800F064FA7B6847
:10188C0000221A777B681B681B6903F00403042B86
:10189C0022D17B681B68DB6803F00403042B1BD18B
:1018AC007B681B686FF004021A617B6802221A774E
:1018BC007B681B689B6903F44073002B03D078682A
:1018CC0000F038FA05E0786800F02BFA786800F040
:1018DC003AFA7B6800221A777B681B681B6903F055
:1018EC000803082B22D17B681B68DB6803F0080314
:1018FC00082B1BD17B681B686FF008021A617B6890
:10190C0004221A777B681B68DB6903F00303002B46
:10191C0003D0786800F00EFA05E0786800F001FA60
:10192C00786800F010FA7B6800221A777B681B68D5
:10193C001B6903F01003102B22D17B681B68DB683A
:10194C0003F01003102B1BD17B681B686FF0100287
:10195C001A617B6808221A777B681B68DB6903F4C1
:10196C004073002B03D0786800F0E4F905E0786848
:10197C0000F0D7F9786800F0E6F97B6800221A7756
:10198C007B681B681B6903F00103012B0ED17B687C
:10199C001B68DB6803F00103012B07D17B681B6814
:1019AC006FF001021A617868FEF75EFC7B681B68B9
:1019BC001B6903F08003802B0ED17B681B68DB68EE
:1019CC0003F08003802B07D17B681B686FF08002CB
:1019DC001A61786800F0D5FC7B681B681B6903F002
:1019EC004003402B0ED17B681B68DB6803F040037F
:1019FC00402B07D17B681B686FF040021A61786836
:101A0C0000F0AAF97B681B681B6903F02003202BEC
:101A1C000ED17B681B68DB6803F02003202B07D1F9
:101A2C007B681B686FF020021A61786800F0A0FCDC
:101A3C0000BF0837BD4680BD80B584B000AFF860EC
:101A4C00B9607A60FB6893F83C30012B01D102231A
:101A5C00ACE0FB68012283F83C207B680C2B00F285
:101A6C009F8001A252F823F0A91A0008AD1B0008B0
:101A7C00AD1B0008AD1B0008E91A0008AD1B0008DF
:101A8C00AD1B0008AD1B00082B1B0008AD1B00088C
:101A9C00AD1B0008AD1B00086B1B0008FB681B6826
:101AAC00B968184600F0C4F9FB681B689A69FB68B2
:101ABC001B6842F008029A61FB681B689A69FB6814
:101ACC001B6822F004029A61FB681B689969BB6869
:101ADC001A69FB681B680A439A6162E0FB681B6821
:101AEC00B968184600F00AFAFB681B689A69FB682B
:101AFC001B6842F400629A61FB681B689A69FB6878
:101B0C001B6822F480629A61FB681B689969BB6848
:101B1C001B691A02FB681B680A439A6141E0FB6867
:101B2C001B68B968184600F053FAFB681B68DA6941
:101B3C00FB681B6842F00802DA61FB681B68DA6913
:101B4C00FB681B6822F00402DA61FB681B68D96928
:101B5C00BB681A69FB681B680A43DA6121E0FB6801
:101B6C001B68B968184600F09DFAFB681B68DA69B7
:101B7C00FB681B6842F40062DA61FB681B68DA6977
:101B8C00FB681B6822F48062DA61FB681B68D96908
:101B9C00BB681B691A02FB681B680A43DA6100E028
:101BAC0000BFFB68002283F83C2000231846103746
:101BBC00BD4680BD80B584B000AF786039607B686D
:101BCC0093F83C30012B01D10223A6E07B68012263
:101BDC0083F83C207B68022283F83D207B681B68DD
:101BEC009B68FB60FB6823F07703FB60FB6823F4C6
:101BFC007F43FB607B681B68FA689A603B681B68D4
:101C0C00402B67D0402B0BD8102B73D0102B02D845
:101C1C00002B6FD078E0202B6CD0302B6AD073E087
:101C2C00702B0DD0702B04D8502B33D0602B41D09F
:101C3C006AE0B3F5805F66D0B3F5005F17D063E060
:101C4C007B6818683B6899683B685A683B68DB6836
:101C5C0000F0EDFA7B681B689B68FB60FB6843F047
:101C6C007703FB607B681B68FA689A604CE07B68C2
:101C7C0018683B6899683B685A683B68DB6800F0F9
:101C8C00D6FA7B681B689A687B681B6842F48042B2
:101C9C009A6039E07B6818683B6859683B68DB6878
:101CAC001A4600F04DFA7B681B685021184600F06C
:101CBC00A4FA29E07B6818683B6859683B68DB68C4
:101CCC001A4600F06BFA7B681B686021184600F01E
:101CDC0094FA19E07B6818683B6859683B68DB68C4
:101CEC001A4600F02DFA7B681B684021184600F05C
:101CFC0084FA09E07B681A683B681B681946104631
:101D0C0000F07BFA00E000BF7B68012283F83D20E5
:101D1C007B68002283F83C20002318461037BD4610
:101D2C0080BD80B483B000AF786000BF0C37BD4677
:101D3C0080BC704780B483B000AF786000BF0C37B4
:101D4C00BD4680BC704780B483B000AF786000BFE4
:101D5C000C37BD4680BC704780B483B000AF786050
:101D6C0000BF0C37BD4680BC7047000080B485B006
:101D7C0000AF786039607B681B68FB607B68294A20
:101D8C0093420BD07B68B3F1804F07D07B68264A17
:101D9C00934203D07B68254A934208D1FB6823F019
:101DAC007003FB603B685B68FA681343FB607B68FD
:101DBC001C4A93420BD07B68B3F1804F07D07B68F1
:101DCC00194A934203D07B68184A934208D1FB68A6
:101DDC0023F44073FB603B68DB68FA681343FB60D9
:101DEC00FB6823F080023B685B691343FB607B68F4
:101DFC00FA681A603B689A687B68DA623B681A6812
:101E0C007B689A627B68074A934203D13B681A69E4
:101E1C007B681A637B6801225A6100BF1437BD4688
:101E2C0080BC7047002C01400004004000080040BA
:101E3C0080B487B000AF786039607B681B6A23F090
:101E4C0001027B681A627B681B6A7B617B685B683A
:101E5C003B617B689B69FB60FB6823F07003FB6054
:101E6C00FB6823F00303FB603B681B68FA681343B1
:101E7C00FB607B6923F002037B613B689B687A699A
:101E8C0013437B617B681C4A93420CD17B6923F022
:101E9C0008037B613B68DB687A6913437B617B6970
:101EAC0023F004037B617B68134A934211D13B6995
:101EBC0023F480733B613B6923F400733B613B6803
:101ECC005B693A6913433B613B689B693A6913430D
:101EDC003B617B683A695A607B68FA689A613B6837
:101EEC005A687B685A637B687A691A6200BF1C3730
:101EFC00BD4680BC704700BF002C014080B487B049
:101F0C0000AF786039607B681B6A23F010027B6835
:101F1C001A627B681B6A7B617B685B683B617B68D0
:101F2C009B69FB60FB6823F4E043FB60FB6823F4D4
:101F3C004073FB603B681B681B02FA681343FB6031
:101F4C007B6923F020037B613B689B681B017A69EA
:101F5C0013437B617B681D4A93420DD17B6923F04F
:101F6C0080037B613B68DB681B017A6913437B61EF
:101F7C007B6923F040037B617B68144A934213D145
:101F8C003B6923F480633B613B6923F400633B6151
:101F9C003B685B699B003A6913433B613B689B69F7
:101FAC009B003A6913433B617B683A695A607B68D2
:101FBC00FA689A613B685A687B689A637B687A69AD
:101FCC001A6200BF1C37BD4680BC7047002C014014
:101FDC0080B487B000AF786039607B681B6A23F4EB
:101FEC0080727B681A627B681B6A7B617B685B68AA
:101FFC003B617B68DB69FB60FB6823F07003FB6073
:10200C00FB6823F00303FB603B681B68FA6813430F
:10201C00FB607B6923F400737B613B689B681B024C
:10202C007A6913437B617B681D4A93420DD17B69AE
:10203C0023F400637B613B68DB681B027A69134302
:10204C007B617B6923F480637B617B68144A9342D8
:10205C0013D13B6923F480533B613B6923F4005358
:10206C003B613B685B691B013A6913433B613B680D
:10207C009B691B013A6913433B617B683A695A605F
:10208C007B68FA68DA613B685A687B68DA637B685C
:10209C007A691A6200BF1C37BD4680BC704700BF0E
:1020AC00002C014080B487B000AF786039607B6849
:1020BC001B6A23F480527B681A627B681B6A3B6143
:1020CC007B685B687B617B68DB69FB60FB6823F486
:1020DC00E043FB60FB6823F44073FB603B681B68C8
:1020EC001B02FA681343FB603B6923F400533B610A
:1020FC003B689B681B033A6913433B617B680F4A3F
:10210C00934209D17B6923F480437B613B685B6913
:10211C009B017A6913437B617B687A695A607B689F
:10212C00FA68DA613B685A687B681A647B683A69BA
:10213C001A6200BF1C37BD4680BC7047002C0140A2
:10214C0080B487B000AFF860B9607A60FB681B6A36
:10215C007B61FB681B6A23F00102FB681A62FB6857
:10216C009B693B613B6923F0F0033B617B681B017E
:10217C003A6913433B617B6923F00A037B617A69FB
:10218C00BB6813437B61FB683A699A61FB687A69A7
:10219C001A6200BF1C37BD4680BC704780B487B044
:1021AC0000AFF860B9607A60FB681B6A23F010021C
:1021BC00FB681A62FB689B697B61FB681B6A3B616D
:1021CC007B6923F470437B617B681B037A6913433F
:1021DC007B613B6923F0A0033B61BB681B013A693F
:1021EC0013433B61FB687A699A61FB683A691A622E
:1021FC0000BF1C37BD4680BC704780B485B000AFB3
:10220C00786039607B689B68FB60FB6823F0700327
:10221C00FB603A68FB68134343F00703FB607B6881
:10222C00FA689A6000BF1437BD4680BC704780B412
:10223C0087B000AFF860B9607A603B60FB689B6860
:10224C007B617B6923F47F437B613B681A027B686B
:10225C001A43BB6813437A6913437B61FB687A6941
:10226C009A6000BF1C37BD4680BC704780B487B0F5
:10227C0000AFF860B9607A60BB6803F01F030122FD
:10228C0002FA03F37B61FB681A6A7B69DB431A4031
:10229C00FB681A62FB681A6ABB6803F01F03796853
:1022AC0001FA03F31A43FB681A6200BF1C37BD46E0
:1022BC0080BC704780B485B000AF786039607B68B3
:1022CC0093F83C30012B01D1022346E07B680122BC
:1022DC0083F83C207B68022283F83D207B681B68D6
:1022EC005B68FB607B681B689B68BB60FB6823F0CA
:1022FC007003FB603B681B68FA681343FB607B68E8
:10230C001B68FA685A607B681B68164A93420ED0A9
:10231C007B681B68B3F1804F09D07B681B68124A3D
:10232C00934204D07B681B68104A93420CD1BB6863
:10233C0023F08003BB603B685B68BA681343BB60E7
:10234C007B681B68BA689A607B68012283F83D2021
:10235C007B68002283F83C20002318461437BD46C6
:10236C0080BC7047002C0140000400400008004075
:10237C0080B483B000AF786000BF0C37BD4680BC22
:10238C00704780B483B000AF786000BF0C37BD4697
:10239C0080BC704770B500250C4E0D4CA41BA410CE
:1023AC00A54209D100F022F800250A4E0A4CA41BC4
:1023BC00A410A54205D170BD56F8253098470135BB
:1023CC00EEE756F8253098470135F2E7342400083B
:1023DC00342400083424000838240008034602443E
:1023EC00934200D1704703F8011BF9E7F8B500BF21
:1023FC00F8BC08BC9E467047F8B500BFF8BC08BCDA
:04240C009E46704731
:1024100002030405060708090A0B0C0D0E0F101025
:10242000010200000000000000000000010203049F
:04243000060708098A
:04243400310100086A
:042438000D0100088A
:10243C00FF000000580200000024F400100000000F
:04244C00010000008B
:04000005080007499F
:00000001FF
